{
	"contracts/helloScroll.sol": {
		"HelloScroll": {
			"abi": [
				{
					"inputs": [],
					"name": "message",
					"outputs": [
						{
							"internalType": "string",
							"name": "",
							"type": "string"
						}
					],
					"stateMutability": "view",
					"type": "function"
				},
				{
					"inputs": [
						{
							"internalType": "string",
							"name": "newMessage",
							"type": "string"
						}
					],
					"name": "updateMessage",
					"outputs": [],
					"stateMutability": "nonpayable",
					"type": "function"
				}
			],
			"devdoc": {
				"kind": "dev",
				"methods": {},
				"version": 1
			},
			"evm": {
				"assembly": "    /* \"contracts/helloScroll.sol\":240:399  contract HelloScroll {... */\n  mstore(0x40, 0x80)\n    /* \"contracts/helloScroll.sol\":266:304  string public message = \"Hello Scroll\" */\n  mload(0x40)\n  dup1\n  0x40\n  add\n  0x40\n  mstore\n  dup1\n  0x0c\n  dup2\n  mstore\n  0x20\n  add\n  0x48656c6c6f205363726f6c6c0000000000000000000000000000000000000000\n  dup2\n  mstore\n  pop\n  0x00\n  swap1\n  dup1\n  mload\n  swap1\n  0x20\n  add\n  swap1\n  tag_1\n  swap3\n  swap2\n  swap1\n  tag_2\n  jump\t// in\ntag_1:\n  pop\n    /* \"contracts/helloScroll.sol\":240:399  contract HelloScroll {... */\n  callvalue\n  dup1\n  iszero\n  tag_3\n  jumpi\n  0x00\n  dup1\n  revert\ntag_3:\n  pop\n  jump(tag_4)\ntag_2:\n  dup3\n  dup1\n  sload\n  tag_5\n  swap1\n  tag_6\n  jump\t// in\ntag_5:\n  swap1\n  0x00\n  mstore\n  keccak256(0x00, 0x20)\n  swap1\n  0x1f\n  add\n  0x20\n  swap1\n  div\n  dup2\n  add\n  swap3\n  dup3\n  tag_8\n  jumpi\n  0x00\n  dup6\n  sstore\n  jump(tag_7)\ntag_8:\n  dup3\n  0x1f\n  lt\n  tag_9\n  jumpi\n  dup1\n  mload\n  not(0xff)\n  and\n  dup4\n  dup1\n  add\n  or\n  dup6\n  sstore\n  jump(tag_7)\ntag_9:\n  dup3\n  dup1\n  add\n  0x01\n  add\n  dup6\n  sstore\n  dup3\n  iszero\n  tag_7\n  jumpi\n  swap2\n  dup3\n  add\ntag_10:\n  dup3\n  dup2\n  gt\n  iszero\n  tag_11\n  jumpi\n  dup3\n  mload\n  dup3\n  sstore\n  swap2\n  0x20\n  add\n  swap2\n  swap1\n  0x01\n  add\n  swap1\n  jump(tag_10)\ntag_11:\ntag_7:\n  pop\n  swap1\n  pop\n  tag_12\n  swap2\n  swap1\n  tag_13\n  jump\t// in\ntag_12:\n  pop\n  swap1\n  jump\t// out\ntag_13:\ntag_14:\n  dup1\n  dup3\n  gt\n  iszero\n  tag_15\n  jumpi\n  0x00\n  dup2\n  0x00\n  swap1\n  sstore\n  pop\n  0x01\n  add\n  jump(tag_14)\ntag_15:\n  pop\n  swap1\n  jump\t// out\n    /* \"#utility.yul\":7:327   */\ntag_6:\n    /* \"#utility.yul\":51:57   */\n  0x00\n    /* \"#utility.yul\":88:89   */\n  0x02\n    /* \"#utility.yul\":82:86   */\n  dup3\n    /* \"#utility.yul\":78:90   */\n  div\n    /* \"#utility.yul\":68:90   */\n  swap1\n  pop\n    /* \"#utility.yul\":135:136   */\n  0x01\n    /* \"#utility.yul\":129:133   */\n  dup3\n    /* \"#utility.yul\":125:137   */\n  and\n    /* \"#utility.yul\":156:174   */\n  dup1\n    /* \"#utility.yul\":146:227   */\n  tag_18\n  jumpi\n    /* \"#utility.yul\":212:216   */\n  0x7f\n    /* \"#utility.yul\":204:210   */\n  dup3\n    /* \"#utility.yul\":200:217   */\n  and\n    /* \"#utility.yul\":190:217   */\n  swap2\n  pop\n    /* \"#utility.yul\":146:227   */\ntag_18:\n    /* \"#utility.yul\":274:276   */\n  0x20\n    /* \"#utility.yul\":266:272   */\n  dup3\n    /* \"#utility.yul\":263:277   */\n  lt\n    /* \"#utility.yul\":243:261   */\n  dup2\n    /* \"#utility.yul\":240:278   */\n  eq\n    /* \"#utility.yul\":237:321   */\n  iszero\n  tag_19\n  jumpi\n    /* \"#utility.yul\":293:311   */\n  tag_20\n  tag_21\n  jump\t// in\ntag_20:\n    /* \"#utility.yul\":237:321   */\ntag_19:\n    /* \"#utility.yul\":58:327   */\n  pop\n    /* \"#utility.yul\":7:327   */\n  swap2\n  swap1\n  pop\n  jump\t// out\n    /* \"#utility.yul\":333:513   */\ntag_21:\n    /* \"#utility.yul\":381:458   */\n  0x4e487b7100000000000000000000000000000000000000000000000000000000\n    /* \"#utility.yul\":378:379   */\n  0x00\n    /* \"#utility.yul\":371:459   */\n  mstore\n    /* \"#utility.yul\":478:482   */\n  0x22\n    /* \"#utility.yul\":475:476   */\n  0x04\n    /* \"#utility.yul\":468:483   */\n  mstore\n    /* \"#utility.yul\":502:506   */\n  0x24\n    /* \"#utility.yul\":499:500   */\n  0x00\n    /* \"#utility.yul\":492:507   */\n  revert\n    /* \"contracts/helloScroll.sol\":240:399  contract HelloScroll {... */\ntag_4:\n  dataSize(sub_0)\n  dup1\n  dataOffset(sub_0)\n  0x00\n  codecopy\n  0x00\n  return\nstop\n\nsub_0: assembly {\n        /* \"contracts/helloScroll.sol\":240:399  contract HelloScroll {... */\n      mstore(0x40, 0x80)\n      callvalue\n      dup1\n      iszero\n      tag_1\n      jumpi\n      0x00\n      dup1\n      revert\n    tag_1:\n      pop\n      jumpi(tag_2, lt(calldatasize, 0x04))\n      shr(0xe0, calldataload(0x00))\n      dup1\n      0x1923be24\n      eq\n      tag_3\n      jumpi\n      dup1\n      0xe21f37ce\n      eq\n      tag_4\n      jumpi\n    tag_2:\n      0x00\n      dup1\n      revert\n        /* \"contracts/helloScroll.sol\":309:396  function updateMessage(string memory newMessage) public {... */\n    tag_3:\n      tag_5\n      0x04\n      dup1\n      calldatasize\n      sub\n      dup2\n      add\n      swap1\n      tag_6\n      swap2\n      swap1\n      tag_7\n      jump\t// in\n    tag_6:\n      tag_8\n      jump\t// in\n    tag_5:\n      stop\n        /* \"contracts/helloScroll.sol\":266:304  string public message = \"Hello Scroll\" */\n    tag_4:\n      tag_9\n      tag_10\n      jump\t// in\n    tag_9:\n      mload(0x40)\n      tag_11\n      swap2\n      swap1\n      tag_12\n      jump\t// in\n    tag_11:\n      mload(0x40)\n      dup1\n      swap2\n      sub\n      swap1\n      return\n        /* \"contracts/helloScroll.sol\":309:396  function updateMessage(string memory newMessage) public {... */\n    tag_8:\n        /* \"contracts/helloScroll.sol\":381:391  newMessage */\n      dup1\n        /* \"contracts/helloScroll.sol\":371:378  message */\n      0x00\n        /* \"contracts/helloScroll.sol\":371:391  message = newMessage */\n      swap1\n      dup1\n      mload\n      swap1\n      0x20\n      add\n      swap1\n      tag_14\n      swap3\n      swap2\n      swap1\n      tag_15\n      jump\t// in\n    tag_14:\n      pop\n        /* \"contracts/helloScroll.sol\":309:396  function updateMessage(string memory newMessage) public {... */\n      pop\n      jump\t// out\n        /* \"contracts/helloScroll.sol\":266:304  string public message = \"Hello Scroll\" */\n    tag_10:\n      0x00\n      dup1\n      sload\n      tag_16\n      swap1\n      tag_17\n      jump\t// in\n    tag_16:\n      dup1\n      0x1f\n      add\n      0x20\n      dup1\n      swap2\n      div\n      mul\n      0x20\n      add\n      mload(0x40)\n      swap1\n      dup2\n      add\n      0x40\n      mstore\n      dup1\n      swap3\n      swap2\n      swap1\n      dup2\n      dup2\n      mstore\n      0x20\n      add\n      dup3\n      dup1\n      sload\n      tag_18\n      swap1\n      tag_17\n      jump\t// in\n    tag_18:\n      dup1\n      iszero\n      tag_19\n      jumpi\n      dup1\n      0x1f\n      lt\n      tag_20\n      jumpi\n      0x0100\n      dup1\n      dup4\n      sload\n      div\n      mul\n      dup4\n      mstore\n      swap2\n      0x20\n      add\n      swap2\n      jump(tag_19)\n    tag_20:\n      dup3\n      add\n      swap2\n      swap1\n      0x00\n      mstore\n      keccak256(0x00, 0x20)\n      swap1\n    tag_21:\n      dup2\n      sload\n      dup2\n      mstore\n      swap1\n      0x01\n      add\n      swap1\n      0x20\n      add\n      dup1\n      dup4\n      gt\n      tag_21\n      jumpi\n      dup3\n      swap1\n      sub\n      0x1f\n      and\n      dup3\n      add\n      swap2\n    tag_19:\n      pop\n      pop\n      pop\n      pop\n      pop\n      dup2\n      jump\t// out\n    tag_15:\n      dup3\n      dup1\n      sload\n      tag_22\n      swap1\n      tag_17\n      jump\t// in\n    tag_22:\n      swap1\n      0x00\n      mstore\n      keccak256(0x00, 0x20)\n      swap1\n      0x1f\n      add\n      0x20\n      swap1\n      div\n      dup2\n      add\n      swap3\n      dup3\n      tag_24\n      jumpi\n      0x00\n      dup6\n      sstore\n      jump(tag_23)\n    tag_24:\n      dup3\n      0x1f\n      lt\n      tag_25\n      jumpi\n      dup1\n      mload\n      not(0xff)\n      and\n      dup4\n      dup1\n      add\n      or\n      dup6\n      sstore\n      jump(tag_23)\n    tag_25:\n      dup3\n      dup1\n      add\n      0x01\n      add\n      dup6\n      sstore\n      dup3\n      iszero\n      tag_23\n      jumpi\n      swap2\n      dup3\n      add\n    tag_26:\n      dup3\n      dup2\n      gt\n      iszero\n      tag_27\n      jumpi\n      dup3\n      mload\n      dup3\n      sstore\n      swap2\n      0x20\n      add\n      swap2\n      swap1\n      0x01\n      add\n      swap1\n      jump(tag_26)\n    tag_27:\n    tag_23:\n      pop\n      swap1\n      pop\n      tag_28\n      swap2\n      swap1\n      tag_29\n      jump\t// in\n    tag_28:\n      pop\n      swap1\n      jump\t// out\n    tag_29:\n    tag_30:\n      dup1\n      dup3\n      gt\n      iszero\n      tag_31\n      jumpi\n      0x00\n      dup2\n      0x00\n      swap1\n      sstore\n      pop\n      0x01\n      add\n      jump(tag_30)\n    tag_31:\n      pop\n      swap1\n      jump\t// out\n        /* \"#utility.yul\":7:419   */\n    tag_33:\n        /* \"#utility.yul\":85:90   */\n      0x00\n        /* \"#utility.yul\":110:176   */\n      tag_35\n        /* \"#utility.yul\":126:175   */\n      tag_36\n        /* \"#utility.yul\":168:174   */\n      dup5\n        /* \"#utility.yul\":126:175   */\n      tag_37\n      jump\t// in\n    tag_36:\n        /* \"#utility.yul\":110:176   */\n      tag_38\n      jump\t// in\n    tag_35:\n        /* \"#utility.yul\":101:176   */\n      swap1\n      pop\n        /* \"#utility.yul\":199:205   */\n      dup3\n        /* \"#utility.yul\":192:197   */\n      dup2\n        /* \"#utility.yul\":185:206   */\n      mstore\n        /* \"#utility.yul\":237:241   */\n      0x20\n        /* \"#utility.yul\":230:235   */\n      dup2\n        /* \"#utility.yul\":226:242   */\n      add\n        /* \"#utility.yul\":275:278   */\n      dup5\n        /* \"#utility.yul\":266:272   */\n      dup5\n        /* \"#utility.yul\":261:264   */\n      dup5\n        /* \"#utility.yul\":257:273   */\n      add\n        /* \"#utility.yul\":254:279   */\n      gt\n        /* \"#utility.yul\":251:363   */\n      iszero\n      tag_39\n      jumpi\n        /* \"#utility.yul\":282:361   */\n      tag_40\n      tag_41\n      jump\t// in\n    tag_40:\n        /* \"#utility.yul\":251:363   */\n    tag_39:\n        /* \"#utility.yul\":372:413   */\n      tag_42\n        /* \"#utility.yul\":406:412   */\n      dup5\n        /* \"#utility.yul\":401:404   */\n      dup3\n        /* \"#utility.yul\":396:399   */\n      dup6\n        /* \"#utility.yul\":372:413   */\n      tag_43\n      jump\t// in\n    tag_42:\n        /* \"#utility.yul\":91:419   */\n      pop\n        /* \"#utility.yul\":7:419   */\n      swap4\n      swap3\n      pop\n      pop\n      pop\n      jump\t// out\n        /* \"#utility.yul\":439:779   */\n    tag_44:\n        /* \"#utility.yul\":495:500   */\n      0x00\n        /* \"#utility.yul\":544:547   */\n      dup3\n        /* \"#utility.yul\":537:541   */\n      0x1f\n        /* \"#utility.yul\":529:535   */\n      dup4\n        /* \"#utility.yul\":525:542   */\n      add\n        /* \"#utility.yul\":521:548   */\n      slt\n        /* \"#utility.yul\":511:633   */\n      tag_46\n      jumpi\n        /* \"#utility.yul\":552:631   */\n      tag_47\n      tag_48\n      jump\t// in\n    tag_47:\n        /* \"#utility.yul\":511:633   */\n    tag_46:\n        /* \"#utility.yul\":669:675   */\n      dup2\n        /* \"#utility.yul\":656:676   */\n      calldataload\n        /* \"#utility.yul\":694:773   */\n      tag_49\n        /* \"#utility.yul\":769:772   */\n      dup5\n        /* \"#utility.yul\":761:767   */\n      dup3\n        /* \"#utility.yul\":754:758   */\n      0x20\n        /* \"#utility.yul\":746:752   */\n      dup7\n        /* \"#utility.yul\":742:759   */\n      add\n        /* \"#utility.yul\":694:773   */\n      tag_33\n      jump\t// in\n    tag_49:\n        /* \"#utility.yul\":685:773   */\n      swap2\n      pop\n        /* \"#utility.yul\":501:779   */\n      pop\n        /* \"#utility.yul\":439:779   */\n      swap3\n      swap2\n      pop\n      pop\n      jump\t// out\n        /* \"#utility.yul\":785:1294   */\n    tag_7:\n        /* \"#utility.yul\":854:860   */\n      0x00\n        /* \"#utility.yul\":903:905   */\n      0x20\n        /* \"#utility.yul\":891:900   */\n      dup3\n        /* \"#utility.yul\":882:889   */\n      dup5\n        /* \"#utility.yul\":878:901   */\n      sub\n        /* \"#utility.yul\":874:906   */\n      slt\n        /* \"#utility.yul\":871:990   */\n      iszero\n      tag_51\n      jumpi\n        /* \"#utility.yul\":909:988   */\n      tag_52\n      tag_53\n      jump\t// in\n    tag_52:\n        /* \"#utility.yul\":871:990   */\n    tag_51:\n        /* \"#utility.yul\":1057:1058   */\n      0x00\n        /* \"#utility.yul\":1046:1055   */\n      dup3\n        /* \"#utility.yul\":1042:1059   */\n      add\n        /* \"#utility.yul\":1029:1060   */\n      calldataload\n        /* \"#utility.yul\":1087:1105   */\n      0xffffffffffffffff\n        /* \"#utility.yul\":1079:1085   */\n      dup2\n        /* \"#utility.yul\":1076:1106   */\n      gt\n        /* \"#utility.yul\":1073:1190   */\n      iszero\n      tag_54\n      jumpi\n        /* \"#utility.yul\":1109:1188   */\n      tag_55\n      tag_56\n      jump\t// in\n    tag_55:\n        /* \"#utility.yul\":1073:1190   */\n    tag_54:\n        /* \"#utility.yul\":1214:1277   */\n      tag_57\n        /* \"#utility.yul\":1269:1276   */\n      dup5\n        /* \"#utility.yul\":1260:1266   */\n      dup3\n        /* \"#utility.yul\":1249:1258   */\n      dup6\n        /* \"#utility.yul\":1245:1267   */\n      add\n        /* \"#utility.yul\":1214:1277   */\n      tag_44\n      jump\t// in\n    tag_57:\n        /* \"#utility.yul\":1204:1277   */\n      swap2\n      pop\n        /* \"#utility.yul\":1000:1287   */\n      pop\n        /* \"#utility.yul\":785:1294   */\n      swap3\n      swap2\n      pop\n      pop\n      jump\t// out\n        /* \"#utility.yul\":1300:1664   */\n    tag_58:\n        /* \"#utility.yul\":1388:1391   */\n      0x00\n        /* \"#utility.yul\":1416:1455   */\n      tag_60\n        /* \"#utility.yul\":1449:1454   */\n      dup3\n        /* \"#utility.yul\":1416:1455   */\n      tag_61\n      jump\t// in\n    tag_60:\n        /* \"#utility.yul\":1471:1542   */\n      tag_62\n        /* \"#utility.yul\":1535:1541   */\n      dup2\n        /* \"#utility.yul\":1530:1533   */\n      dup6\n        /* \"#utility.yul\":1471:1542   */\n      tag_63\n      jump\t// in\n    tag_62:\n        /* \"#utility.yul\":1464:1542   */\n      swap4\n      pop\n        /* \"#utility.yul\":1551:1603   */\n      tag_64\n        /* \"#utility.yul\":1596:1602   */\n      dup2\n        /* \"#utility.yul\":1591:1594   */\n      dup6\n        /* \"#utility.yul\":1584:1588   */\n      0x20\n        /* \"#utility.yul\":1577:1582   */\n      dup7\n        /* \"#utility.yul\":1573:1589   */\n      add\n        /* \"#utility.yul\":1551:1603   */\n      tag_65\n      jump\t// in\n    tag_64:\n        /* \"#utility.yul\":1628:1657   */\n      tag_66\n        /* \"#utility.yul\":1650:1656   */\n      dup2\n        /* \"#utility.yul\":1628:1657   */\n      tag_67\n      jump\t// in\n    tag_66:\n        /* \"#utility.yul\":1623:1626   */\n      dup5\n        /* \"#utility.yul\":1619:1658   */\n      add\n        /* \"#utility.yul\":1612:1658   */\n      swap2\n      pop\n        /* \"#utility.yul\":1392:1664   */\n      pop\n        /* \"#utility.yul\":1300:1664   */\n      swap3\n      swap2\n      pop\n      pop\n      jump\t// out\n        /* \"#utility.yul\":1670:1983   */\n    tag_12:\n        /* \"#utility.yul\":1783:1787   */\n      0x00\n        /* \"#utility.yul\":1821:1823   */\n      0x20\n        /* \"#utility.yul\":1810:1819   */\n      dup3\n        /* \"#utility.yul\":1806:1824   */\n      add\n        /* \"#utility.yul\":1798:1824   */\n      swap1\n      pop\n        /* \"#utility.yul\":1870:1879   */\n      dup2\n        /* \"#utility.yul\":1864:1868   */\n      dup2\n        /* \"#utility.yul\":1860:1880   */\n      sub\n        /* \"#utility.yul\":1856:1857   */\n      0x00\n        /* \"#utility.yul\":1845:1854   */\n      dup4\n        /* \"#utility.yul\":1841:1858   */\n      add\n        /* \"#utility.yul\":1834:1881   */\n      mstore\n        /* \"#utility.yul\":1898:1976   */\n      tag_69\n        /* \"#utility.yul\":1971:1975   */\n      dup2\n        /* \"#utility.yul\":1962:1968   */\n      dup5\n        /* \"#utility.yul\":1898:1976   */\n      tag_58\n      jump\t// in\n    tag_69:\n        /* \"#utility.yul\":1890:1976   */\n      swap1\n      pop\n        /* \"#utility.yul\":1670:1983   */\n      swap3\n      swap2\n      pop\n      pop\n      jump\t// out\n        /* \"#utility.yul\":1989:2118   */\n    tag_38:\n        /* \"#utility.yul\":2023:2029   */\n      0x00\n        /* \"#utility.yul\":2050:2070   */\n      tag_71\n      tag_72\n      jump\t// in\n    tag_71:\n        /* \"#utility.yul\":2040:2070   */\n      swap1\n      pop\n        /* \"#utility.yul\":2079:2112   */\n      tag_73\n        /* \"#utility.yul\":2107:2111   */\n      dup3\n        /* \"#utility.yul\":2099:2105   */\n      dup3\n        /* \"#utility.yul\":2079:2112   */\n      tag_74\n      jump\t// in\n    tag_73:\n        /* \"#utility.yul\":1989:2118   */\n      swap2\n      swap1\n      pop\n      jump\t// out\n        /* \"#utility.yul\":2124:2199   */\n    tag_72:\n        /* \"#utility.yul\":2157:2163   */\n      0x00\n        /* \"#utility.yul\":2190:2192   */\n      0x40\n        /* \"#utility.yul\":2184:2193   */\n      mload\n        /* \"#utility.yul\":2174:2193   */\n      swap1\n      pop\n        /* \"#utility.yul\":2124:2199   */\n      swap1\n      jump\t// out\n        /* \"#utility.yul\":2205:2513   */\n    tag_37:\n        /* \"#utility.yul\":2267:2271   */\n      0x00\n        /* \"#utility.yul\":2357:2375   */\n      0xffffffffffffffff\n        /* \"#utility.yul\":2349:2355   */\n      dup3\n        /* \"#utility.yul\":2346:2376   */\n      gt\n        /* \"#utility.yul\":2343:2399   */\n      iszero\n      tag_77\n      jumpi\n        /* \"#utility.yul\":2379:2397   */\n      tag_78\n      tag_79\n      jump\t// in\n    tag_78:\n        /* \"#utility.yul\":2343:2399   */\n    tag_77:\n        /* \"#utility.yul\":2417:2446   */\n      tag_80\n        /* \"#utility.yul\":2439:2445   */\n      dup3\n        /* \"#utility.yul\":2417:2446   */\n      tag_67\n      jump\t// in\n    tag_80:\n        /* \"#utility.yul\":2409:2446   */\n      swap1\n      pop\n        /* \"#utility.yul\":2501:2505   */\n      0x20\n        /* \"#utility.yul\":2495:2499   */\n      dup2\n        /* \"#utility.yul\":2491:2506   */\n      add\n        /* \"#utility.yul\":2483:2506   */\n      swap1\n      pop\n        /* \"#utility.yul\":2205:2513   */\n      swap2\n      swap1\n      pop\n      jump\t// out\n        /* \"#utility.yul\":2519:2618   */\n    tag_61:\n        /* \"#utility.yul\":2571:2577   */\n      0x00\n        /* \"#utility.yul\":2605:2610   */\n      dup2\n        /* \"#utility.yul\":2599:2611   */\n      mload\n        /* \"#utility.yul\":2589:2611   */\n      swap1\n      pop\n        /* \"#utility.yul\":2519:2618   */\n      swap2\n      swap1\n      pop\n      jump\t// out\n        /* \"#utility.yul\":2624:2793   */\n    tag_63:\n        /* \"#utility.yul\":2708:2719   */\n      0x00\n        /* \"#utility.yul\":2742:2748   */\n      dup3\n        /* \"#utility.yul\":2737:2740   */\n      dup3\n        /* \"#utility.yul\":2730:2749   */\n      mstore\n        /* \"#utility.yul\":2782:2786   */\n      0x20\n        /* \"#utility.yul\":2777:2780   */\n      dup3\n        /* \"#utility.yul\":2773:2787   */\n      add\n        /* \"#utility.yul\":2758:2787   */\n      swap1\n      pop\n        /* \"#utility.yul\":2624:2793   */\n      swap3\n      swap2\n      pop\n      pop\n      jump\t// out\n        /* \"#utility.yul\":2799:2953   */\n    tag_43:\n        /* \"#utility.yul\":2883:2889   */\n      dup3\n        /* \"#utility.yul\":2878:2881   */\n      dup2\n        /* \"#utility.yul\":2873:2876   */\n      dup4\n        /* \"#utility.yul\":2860:2890   */\n      calldatacopy\n        /* \"#utility.yul\":2945:2946   */\n      0x00\n        /* \"#utility.yul\":2936:2942   */\n      dup4\n        /* \"#utility.yul\":2931:2934   */\n      dup4\n        /* \"#utility.yul\":2927:2943   */\n      add\n        /* \"#utility.yul\":2920:2947   */\n      mstore\n        /* \"#utility.yul\":2799:2953   */\n      pop\n      pop\n      pop\n      jump\t// out\n        /* \"#utility.yul\":2959:3266   */\n    tag_65:\n        /* \"#utility.yul\":3027:3028   */\n      0x00\n        /* \"#utility.yul\":3037:3150   */\n    tag_85:\n        /* \"#utility.yul\":3051:3057   */\n      dup4\n        /* \"#utility.yul\":3048:3049   */\n      dup2\n        /* \"#utility.yul\":3045:3058   */\n      lt\n        /* \"#utility.yul\":3037:3150   */\n      iszero\n      tag_87\n      jumpi\n        /* \"#utility.yul\":3136:3137   */\n      dup1\n        /* \"#utility.yul\":3131:3134   */\n      dup3\n        /* \"#utility.yul\":3127:3138   */\n      add\n        /* \"#utility.yul\":3121:3139   */\n      mload\n        /* \"#utility.yul\":3117:3118   */\n      dup2\n        /* \"#utility.yul\":3112:3115   */\n      dup5\n        /* \"#utility.yul\":3108:3119   */\n      add\n        /* \"#utility.yul\":3101:3140   */\n      mstore\n        /* \"#utility.yul\":3073:3075   */\n      0x20\n        /* \"#utility.yul\":3070:3071   */\n      dup2\n        /* \"#utility.yul\":3066:3076   */\n      add\n        /* \"#utility.yul\":3061:3076   */\n      swap1\n      pop\n        /* \"#utility.yul\":3037:3150   */\n      jump(tag_85)\n    tag_87:\n        /* \"#utility.yul\":3168:3174   */\n      dup4\n        /* \"#utility.yul\":3165:3166   */\n      dup2\n        /* \"#utility.yul\":3162:3175   */\n      gt\n        /* \"#utility.yul\":3159:3260   */\n      iszero\n      tag_88\n      jumpi\n        /* \"#utility.yul\":3248:3249   */\n      0x00\n        /* \"#utility.yul\":3239:3245   */\n      dup5\n        /* \"#utility.yul\":3234:3237   */\n      dup5\n        /* \"#utility.yul\":3230:3246   */\n      add\n        /* \"#utility.yul\":3223:3250   */\n      mstore\n        /* \"#utility.yul\":3159:3260   */\n    tag_88:\n        /* \"#utility.yul\":3008:3266   */\n      pop\n        /* \"#utility.yul\":2959:3266   */\n      pop\n      pop\n      pop\n      jump\t// out\n        /* \"#utility.yul\":3272:3592   */\n    tag_17:\n        /* \"#utility.yul\":3316:3322   */\n      0x00\n        /* \"#utility.yul\":3353:3354   */\n      0x02\n        /* \"#utility.yul\":3347:3351   */\n      dup3\n        /* \"#utility.yul\":3343:3355   */\n      div\n        /* \"#utility.yul\":3333:3355   */\n      swap1\n      pop\n        /* \"#utility.yul\":3400:3401   */\n      0x01\n        /* \"#utility.yul\":3394:3398   */\n      dup3\n        /* \"#utility.yul\":3390:3402   */\n      and\n        /* \"#utility.yul\":3421:3439   */\n      dup1\n        /* \"#utility.yul\":3411:3492   */\n      tag_90\n      jumpi\n        /* \"#utility.yul\":3477:3481   */\n      0x7f\n        /* \"#utility.yul\":3469:3475   */\n      dup3\n        /* \"#utility.yul\":3465:3482   */\n      and\n        /* \"#utility.yul\":3455:3482   */\n      swap2\n      pop\n        /* \"#utility.yul\":3411:3492   */\n    tag_90:\n        /* \"#utility.yul\":3539:3541   */\n      0x20\n        /* \"#utility.yul\":3531:3537   */\n      dup3\n        /* \"#utility.yul\":3528:3542   */\n      lt\n        /* \"#utility.yul\":3508:3526   */\n      dup2\n        /* \"#utility.yul\":3505:3543   */\n      eq\n        /* \"#utility.yul\":3502:3586   */\n      iszero\n      tag_91\n      jumpi\n        /* \"#utility.yul\":3558:3576   */\n      tag_92\n      tag_93\n      jump\t// in\n    tag_92:\n        /* \"#utility.yul\":3502:3586   */\n    tag_91:\n        /* \"#utility.yul\":3323:3592   */\n      pop\n        /* \"#utility.yul\":3272:3592   */\n      swap2\n      swap1\n      pop\n      jump\t// out\n        /* \"#utility.yul\":3598:3879   */\n    tag_74:\n        /* \"#utility.yul\":3681:3708   */\n      tag_95\n        /* \"#utility.yul\":3703:3707   */\n      dup3\n        /* \"#utility.yul\":3681:3708   */\n      tag_67\n      jump\t// in\n    tag_95:\n        /* \"#utility.yul\":3673:3679   */\n      dup2\n        /* \"#utility.yul\":3669:3709   */\n      add\n        /* \"#utility.yul\":3811:3817   */\n      dup2\n        /* \"#utility.yul\":3799:3809   */\n      dup2\n        /* \"#utility.yul\":3796:3818   */\n      lt\n        /* \"#utility.yul\":3775:3793   */\n      0xffffffffffffffff\n        /* \"#utility.yul\":3763:3773   */\n      dup3\n        /* \"#utility.yul\":3760:3794   */\n      gt\n        /* \"#utility.yul\":3757:3819   */\n      or\n        /* \"#utility.yul\":3754:3842   */\n      iszero\n      tag_96\n      jumpi\n        /* \"#utility.yul\":3822:3840   */\n      tag_97\n      tag_79\n      jump\t// in\n    tag_97:\n        /* \"#utility.yul\":3754:3842   */\n    tag_96:\n        /* \"#utility.yul\":3862:3872   */\n      dup1\n        /* \"#utility.yul\":3858:3860   */\n      0x40\n        /* \"#utility.yul\":3851:3873   */\n      mstore\n        /* \"#utility.yul\":3641:3879   */\n      pop\n        /* \"#utility.yul\":3598:3879   */\n      pop\n      pop\n      jump\t// out\n        /* \"#utility.yul\":3885:4065   */\n    tag_93:\n        /* \"#utility.yul\":3933:4010   */\n      0x4e487b7100000000000000000000000000000000000000000000000000000000\n        /* \"#utility.yul\":3930:3931   */\n      0x00\n        /* \"#utility.yul\":3923:4011   */\n      mstore\n        /* \"#utility.yul\":4030:4034   */\n      0x22\n        /* \"#utility.yul\":4027:4028   */\n      0x04\n        /* \"#utility.yul\":4020:4035   */\n      mstore\n        /* \"#utility.yul\":4054:4058   */\n      0x24\n        /* \"#utility.yul\":4051:4052   */\n      0x00\n        /* \"#utility.yul\":4044:4059   */\n      revert\n        /* \"#utility.yul\":4071:4251   */\n    tag_79:\n        /* \"#utility.yul\":4119:4196   */\n      0x4e487b7100000000000000000000000000000000000000000000000000000000\n        /* \"#utility.yul\":4116:4117   */\n      0x00\n        /* \"#utility.yul\":4109:4197   */\n      mstore\n        /* \"#utility.yul\":4216:4220   */\n      0x41\n        /* \"#utility.yul\":4213:4214   */\n      0x04\n        /* \"#utility.yul\":4206:4221   */\n      mstore\n        /* \"#utility.yul\":4240:4244   */\n      0x24\n        /* \"#utility.yul\":4237:4238   */\n      0x00\n        /* \"#utility.yul\":4230:4245   */\n      revert\n        /* \"#utility.yul\":4257:4374   */\n    tag_48:\n        /* \"#utility.yul\":4366:4367   */\n      0x00\n        /* \"#utility.yul\":4363:4364   */\n      dup1\n        /* \"#utility.yul\":4356:4368   */\n      revert\n        /* \"#utility.yul\":4380:4497   */\n    tag_41:\n        /* \"#utility.yul\":4489:4490   */\n      0x00\n        /* \"#utility.yul\":4486:4487   */\n      dup1\n        /* \"#utility.yul\":4479:4491   */\n      revert\n        /* \"#utility.yul\":4503:4620   */\n    tag_56:\n        /* \"#utility.yul\":4612:4613   */\n      0x00\n        /* \"#utility.yul\":4609:4610   */\n      dup1\n        /* \"#utility.yul\":4602:4614   */\n      revert\n        /* \"#utility.yul\":4626:4743   */\n    tag_53:\n        /* \"#utility.yul\":4735:4736   */\n      0x00\n        /* \"#utility.yul\":4732:4733   */\n      dup1\n        /* \"#utility.yul\":4725:4737   */\n      revert\n        /* \"#utility.yul\":4749:4851   */\n    tag_67:\n        /* \"#utility.yul\":4790:4796   */\n      0x00\n        /* \"#utility.yul\":4841:4843   */\n      0x1f\n        /* \"#utility.yul\":4837:4844   */\n      not\n        /* \"#utility.yul\":4832:4834   */\n      0x1f\n        /* \"#utility.yul\":4825:4830   */\n      dup4\n        /* \"#utility.yul\":4821:4835   */\n      add\n        /* \"#utility.yul\":4817:4845   */\n      and\n        /* \"#utility.yul\":4807:4845   */\n      swap1\n      pop\n        /* \"#utility.yul\":4749:4851   */\n      swap2\n      swap1\n      pop\n      jump\t// out\n\n    auxdata: 0xa26469706673582212202dfcf04b163d8fd2b7d76b89c52cddbf74d4564c24c332f3bd757055764c615964736f6c63430008070033\n}\n",
				"bytecode": {
					"linkReferences": {},
					"object": "60806040526040518060400160405280600c81526020017f48656c6c6f205363726f6c6c00000000000000000000000000000000000000008152506000908051906020019061004f929190610062565b5034801561005c57600080fd5b50610166565b82805461006e90610105565b90600052602060002090601f01602090048101928261009057600085556100d7565b82601f106100a957805160ff19168380011785556100d7565b828001600101855582156100d7579182015b828111156100d65782518255916020019190600101906100bb565b5b5090506100e491906100e8565b5090565b5b808211156101015760008160009055506001016100e9565b5090565b6000600282049050600182168061011d57607f821691505b6020821081141561013157610130610137565b5b50919050565b7f4e487b7100000000000000000000000000000000000000000000000000000000600052602260045260246000fd5b6104a4806101756000396000f3fe608060405234801561001057600080fd5b50600436106100365760003560e01c80631923be241461003b578063e21f37ce14610057575b600080fd5b61005560048036038101906100509190610230565b610075565b005b61005f61008f565b60405161006c91906102b2565b60405180910390f35b806000908051906020019061008b92919061011d565b5050565b6000805461009c90610388565b80601f01602080910402602001604051908101604052809291908181526020018280546100c890610388565b80156101155780601f106100ea57610100808354040283529160200191610115565b820191906000526020600020905b8154815290600101906020018083116100f857829003601f168201915b505050505081565b82805461012990610388565b90600052602060002090601f01602090048101928261014b5760008555610192565b82601f1061016457805160ff1916838001178555610192565b82800160010185558215610192579182015b82811115610191578251825591602001919060010190610176565b5b50905061019f91906101a3565b5090565b5b808211156101bc5760008160009055506001016101a4565b5090565b60006101d36101ce846102f9565b6102d4565b9050828152602081018484840111156101ef576101ee61044e565b5b6101fa848285610346565b509392505050565b600082601f83011261021757610216610449565b5b81356102278482602086016101c0565b91505092915050565b60006020828403121561024657610245610458565b5b600082013567ffffffffffffffff81111561026457610263610453565b5b61027084828501610202565b91505092915050565b60006102848261032a565b61028e8185610335565b935061029e818560208601610355565b6102a78161045d565b840191505092915050565b600060208201905081810360008301526102cc8184610279565b905092915050565b60006102de6102ef565b90506102ea82826103ba565b919050565b6000604051905090565b600067ffffffffffffffff8211156103145761031361041a565b5b61031d8261045d565b9050602081019050919050565b600081519050919050565b600082825260208201905092915050565b82818337600083830152505050565b60005b83811015610373578082015181840152602081019050610358565b83811115610382576000848401525b50505050565b600060028204905060018216806103a057607f821691505b602082108114156103b4576103b36103eb565b5b50919050565b6103c38261045d565b810181811067ffffffffffffffff821117156103e2576103e161041a565b5b80604052505050565b7f4e487b7100000000000000000000000000000000000000000000000000000000600052602260045260246000fd5b7f4e487b7100000000000000000000000000000000000000000000000000000000600052604160045260246000fd5b600080fd5b600080fd5b600080fd5b600080fd5b6000601f19601f830116905091905056fea26469706673582212202dfcf04b163d8fd2b7d76b89c52cddbf74d4564c24c332f3bd757055764c615964736f6c63430008070033",
					"opcodes": "PUSH1 0x80 PUSH1 0x40 MSTORE PUSH1 0x40 MLOAD DUP1 PUSH1 0x40 ADD PUSH1 0x40 MSTORE DUP1 PUSH1 0xC DUP2 MSTORE PUSH1 0x20 ADD PUSH32 0x48656C6C6F205363726F6C6C0000000000000000000000000000000000000000 DUP2 MSTORE POP PUSH1 0x0 SWAP1 DUP1 MLOAD SWAP1 PUSH1 0x20 ADD SWAP1 PUSH2 0x4F SWAP3 SWAP2 SWAP1 PUSH2 0x62 JUMP JUMPDEST POP CALLVALUE DUP1 ISZERO PUSH2 0x5C JUMPI PUSH1 0x0 DUP1 REVERT JUMPDEST POP PUSH2 0x166 JUMP JUMPDEST DUP3 DUP1 SLOAD PUSH2 0x6E SWAP1 PUSH2 0x105 JUMP JUMPDEST SWAP1 PUSH1 0x0 MSTORE PUSH1 0x20 PUSH1 0x0 KECCAK256 SWAP1 PUSH1 0x1F ADD PUSH1 0x20 SWAP1 DIV DUP2 ADD SWAP3 DUP3 PUSH2 0x90 JUMPI PUSH1 0x0 DUP6 SSTORE PUSH2 0xD7 JUMP JUMPDEST DUP3 PUSH1 0x1F LT PUSH2 0xA9 JUMPI DUP1 MLOAD PUSH1 0xFF NOT AND DUP4 DUP1 ADD OR DUP6 SSTORE PUSH2 0xD7 JUMP JUMPDEST DUP3 DUP1 ADD PUSH1 0x1 ADD DUP6 SSTORE DUP3 ISZERO PUSH2 0xD7 JUMPI SWAP2 DUP3 ADD JUMPDEST DUP3 DUP2 GT ISZERO PUSH2 0xD6 JUMPI DUP3 MLOAD DUP3 SSTORE SWAP2 PUSH1 0x20 ADD SWAP2 SWAP1 PUSH1 0x1 ADD SWAP1 PUSH2 0xBB JUMP JUMPDEST JUMPDEST POP SWAP1 POP PUSH2 0xE4 SWAP2 SWAP1 PUSH2 0xE8 JUMP JUMPDEST POP SWAP1 JUMP JUMPDEST JUMPDEST DUP1 DUP3 GT ISZERO PUSH2 0x101 JUMPI PUSH1 0x0 DUP2 PUSH1 0x0 SWAP1 SSTORE POP PUSH1 0x1 ADD PUSH2 0xE9 JUMP JUMPDEST POP SWAP1 JUMP JUMPDEST PUSH1 0x0 PUSH1 0x2 DUP3 DIV SWAP1 POP PUSH1 0x1 DUP3 AND DUP1 PUSH2 0x11D JUMPI PUSH1 0x7F DUP3 AND SWAP2 POP JUMPDEST PUSH1 0x20 DUP3 LT DUP2 EQ ISZERO PUSH2 0x131 JUMPI PUSH2 0x130 PUSH2 0x137 JUMP JUMPDEST JUMPDEST POP SWAP2 SWAP1 POP JUMP JUMPDEST PUSH32 0x4E487B7100000000000000000000000000000000000000000000000000000000 PUSH1 0x0 MSTORE PUSH1 0x22 PUSH1 0x4 MSTORE PUSH1 0x24 PUSH1 0x0 REVERT JUMPDEST PUSH2 0x4A4 DUP1 PUSH2 0x175 PUSH1 0x0 CODECOPY PUSH1 0x0 RETURN INVALID PUSH1 0x80 PUSH1 0x40 MSTORE CALLVALUE DUP1 ISZERO PUSH2 0x10 JUMPI PUSH1 0x0 DUP1 REVERT JUMPDEST POP PUSH1 0x4 CALLDATASIZE LT PUSH2 0x36 JUMPI PUSH1 0x0 CALLDATALOAD PUSH1 0xE0 SHR DUP1 PUSH4 0x1923BE24 EQ PUSH2 0x3B JUMPI DUP1 PUSH4 0xE21F37CE EQ PUSH2 0x57 JUMPI JUMPDEST PUSH1 0x0 DUP1 REVERT JUMPDEST PUSH2 0x55 PUSH1 0x4 DUP1 CALLDATASIZE SUB DUP2 ADD SWAP1 PUSH2 0x50 SWAP2 SWAP1 PUSH2 0x230 JUMP JUMPDEST PUSH2 0x75 JUMP JUMPDEST STOP JUMPDEST PUSH2 0x5F PUSH2 0x8F JUMP JUMPDEST PUSH1 0x40 MLOAD PUSH2 0x6C SWAP2 SWAP1 PUSH2 0x2B2 JUMP JUMPDEST PUSH1 0x40 MLOAD DUP1 SWAP2 SUB SWAP1 RETURN JUMPDEST DUP1 PUSH1 0x0 SWAP1 DUP1 MLOAD SWAP1 PUSH1 0x20 ADD SWAP1 PUSH2 0x8B SWAP3 SWAP2 SWAP1 PUSH2 0x11D JUMP JUMPDEST POP POP JUMP JUMPDEST PUSH1 0x0 DUP1 SLOAD PUSH2 0x9C SWAP1 PUSH2 0x388 JUMP JUMPDEST DUP1 PUSH1 0x1F ADD PUSH1 0x20 DUP1 SWAP2 DIV MUL PUSH1 0x20 ADD PUSH1 0x40 MLOAD SWAP1 DUP2 ADD PUSH1 0x40 MSTORE DUP1 SWAP3 SWAP2 SWAP1 DUP2 DUP2 MSTORE PUSH1 0x20 ADD DUP3 DUP1 SLOAD PUSH2 0xC8 SWAP1 PUSH2 0x388 JUMP JUMPDEST DUP1 ISZERO PUSH2 0x115 JUMPI DUP1 PUSH1 0x1F LT PUSH2 0xEA JUMPI PUSH2 0x100 DUP1 DUP4 SLOAD DIV MUL DUP4 MSTORE SWAP2 PUSH1 0x20 ADD SWAP2 PUSH2 0x115 JUMP JUMPDEST DUP3 ADD SWAP2 SWAP1 PUSH1 0x0 MSTORE PUSH1 0x20 PUSH1 0x0 KECCAK256 SWAP1 JUMPDEST DUP2 SLOAD DUP2 MSTORE SWAP1 PUSH1 0x1 ADD SWAP1 PUSH1 0x20 ADD DUP1 DUP4 GT PUSH2 0xF8 JUMPI DUP3 SWAP1 SUB PUSH1 0x1F AND DUP3 ADD SWAP2 JUMPDEST POP POP POP POP POP DUP2 JUMP JUMPDEST DUP3 DUP1 SLOAD PUSH2 0x129 SWAP1 PUSH2 0x388 JUMP JUMPDEST SWAP1 PUSH1 0x0 MSTORE PUSH1 0x20 PUSH1 0x0 KECCAK256 SWAP1 PUSH1 0x1F ADD PUSH1 0x20 SWAP1 DIV DUP2 ADD SWAP3 DUP3 PUSH2 0x14B JUMPI PUSH1 0x0 DUP6 SSTORE PUSH2 0x192 JUMP JUMPDEST DUP3 PUSH1 0x1F LT PUSH2 0x164 JUMPI DUP1 MLOAD PUSH1 0xFF NOT AND DUP4 DUP1 ADD OR DUP6 SSTORE PUSH2 0x192 JUMP JUMPDEST DUP3 DUP1 ADD PUSH1 0x1 ADD DUP6 SSTORE DUP3 ISZERO PUSH2 0x192 JUMPI SWAP2 DUP3 ADD JUMPDEST DUP3 DUP2 GT ISZERO PUSH2 0x191 JUMPI DUP3 MLOAD DUP3 SSTORE SWAP2 PUSH1 0x20 ADD SWAP2 SWAP1 PUSH1 0x1 ADD SWAP1 PUSH2 0x176 JUMP JUMPDEST JUMPDEST POP SWAP1 POP PUSH2 0x19F SWAP2 SWAP1 PUSH2 0x1A3 JUMP JUMPDEST POP SWAP1 JUMP JUMPDEST JUMPDEST DUP1 DUP3 GT ISZERO PUSH2 0x1BC JUMPI PUSH1 0x0 DUP2 PUSH1 0x0 SWAP1 SSTORE POP PUSH1 0x1 ADD PUSH2 0x1A4 JUMP JUMPDEST POP SWAP1 JUMP JUMPDEST PUSH1 0x0 PUSH2 0x1D3 PUSH2 0x1CE DUP5 PUSH2 0x2F9 JUMP JUMPDEST PUSH2 0x2D4 JUMP JUMPDEST SWAP1 POP DUP3 DUP2 MSTORE PUSH1 0x20 DUP2 ADD DUP5 DUP5 DUP5 ADD GT ISZERO PUSH2 0x1EF JUMPI PUSH2 0x1EE PUSH2 0x44E JUMP JUMPDEST JUMPDEST PUSH2 0x1FA DUP5 DUP3 DUP6 PUSH2 0x346 JUMP JUMPDEST POP SWAP4 SWAP3 POP POP POP JUMP JUMPDEST PUSH1 0x0 DUP3 PUSH1 0x1F DUP4 ADD SLT PUSH2 0x217 JUMPI PUSH2 0x216 PUSH2 0x449 JUMP JUMPDEST JUMPDEST DUP2 CALLDATALOAD PUSH2 0x227 DUP5 DUP3 PUSH1 0x20 DUP7 ADD PUSH2 0x1C0 JUMP JUMPDEST SWAP2 POP POP SWAP3 SWAP2 POP POP JUMP JUMPDEST PUSH1 0x0 PUSH1 0x20 DUP3 DUP5 SUB SLT ISZERO PUSH2 0x246 JUMPI PUSH2 0x245 PUSH2 0x458 JUMP JUMPDEST JUMPDEST PUSH1 0x0 DUP3 ADD CALLDATALOAD PUSH8 0xFFFFFFFFFFFFFFFF DUP2 GT ISZERO PUSH2 0x264 JUMPI PUSH2 0x263 PUSH2 0x453 JUMP JUMPDEST JUMPDEST PUSH2 0x270 DUP5 DUP3 DUP6 ADD PUSH2 0x202 JUMP JUMPDEST SWAP2 POP POP SWAP3 SWAP2 POP POP JUMP JUMPDEST PUSH1 0x0 PUSH2 0x284 DUP3 PUSH2 0x32A JUMP JUMPDEST PUSH2 0x28E DUP2 DUP6 PUSH2 0x335 JUMP JUMPDEST SWAP4 POP PUSH2 0x29E DUP2 DUP6 PUSH1 0x20 DUP7 ADD PUSH2 0x355 JUMP JUMPDEST PUSH2 0x2A7 DUP2 PUSH2 0x45D JUMP JUMPDEST DUP5 ADD SWAP2 POP POP SWAP3 SWAP2 POP POP JUMP JUMPDEST PUSH1 0x0 PUSH1 0x20 DUP3 ADD SWAP1 POP DUP2 DUP2 SUB PUSH1 0x0 DUP4 ADD MSTORE PUSH2 0x2CC DUP2 DUP5 PUSH2 0x279 JUMP JUMPDEST SWAP1 POP SWAP3 SWAP2 POP POP JUMP JUMPDEST PUSH1 0x0 PUSH2 0x2DE PUSH2 0x2EF JUMP JUMPDEST SWAP1 POP PUSH2 0x2EA DUP3 DUP3 PUSH2 0x3BA JUMP JUMPDEST SWAP2 SWAP1 POP JUMP JUMPDEST PUSH1 0x0 PUSH1 0x40 MLOAD SWAP1 POP SWAP1 JUMP JUMPDEST PUSH1 0x0 PUSH8 0xFFFFFFFFFFFFFFFF DUP3 GT ISZERO PUSH2 0x314 JUMPI PUSH2 0x313 PUSH2 0x41A JUMP JUMPDEST JUMPDEST PUSH2 0x31D DUP3 PUSH2 0x45D JUMP JUMPDEST SWAP1 POP PUSH1 0x20 DUP2 ADD SWAP1 POP SWAP2 SWAP1 POP JUMP JUMPDEST PUSH1 0x0 DUP2 MLOAD SWAP1 POP SWAP2 SWAP1 POP JUMP JUMPDEST PUSH1 0x0 DUP3 DUP3 MSTORE PUSH1 0x20 DUP3 ADD SWAP1 POP SWAP3 SWAP2 POP POP JUMP JUMPDEST DUP3 DUP2 DUP4 CALLDATACOPY PUSH1 0x0 DUP4 DUP4 ADD MSTORE POP POP POP JUMP JUMPDEST PUSH1 0x0 JUMPDEST DUP4 DUP2 LT ISZERO PUSH2 0x373 JUMPI DUP1 DUP3 ADD MLOAD DUP2 DUP5 ADD MSTORE PUSH1 0x20 DUP2 ADD SWAP1 POP PUSH2 0x358 JUMP JUMPDEST DUP4 DUP2 GT ISZERO PUSH2 0x382 JUMPI PUSH1 0x0 DUP5 DUP5 ADD MSTORE JUMPDEST POP POP POP POP JUMP JUMPDEST PUSH1 0x0 PUSH1 0x2 DUP3 DIV SWAP1 POP PUSH1 0x1 DUP3 AND DUP1 PUSH2 0x3A0 JUMPI PUSH1 0x7F DUP3 AND SWAP2 POP JUMPDEST PUSH1 0x20 DUP3 LT DUP2 EQ ISZERO PUSH2 0x3B4 JUMPI PUSH2 0x3B3 PUSH2 0x3EB JUMP JUMPDEST JUMPDEST POP SWAP2 SWAP1 POP JUMP JUMPDEST PUSH2 0x3C3 DUP3 PUSH2 0x45D JUMP JUMPDEST DUP2 ADD DUP2 DUP2 LT PUSH8 0xFFFFFFFFFFFFFFFF DUP3 GT OR ISZERO PUSH2 0x3E2 JUMPI PUSH2 0x3E1 PUSH2 0x41A JUMP JUMPDEST JUMPDEST DUP1 PUSH1 0x40 MSTORE POP POP POP JUMP JUMPDEST PUSH32 0x4E487B7100000000000000000000000000000000000000000000000000000000 PUSH1 0x0 MSTORE PUSH1 0x22 PUSH1 0x4 MSTORE PUSH1 0x24 PUSH1 0x0 REVERT JUMPDEST PUSH32 0x4E487B7100000000000000000000000000000000000000000000000000000000 PUSH1 0x0 MSTORE PUSH1 0x41 PUSH1 0x4 MSTORE PUSH1 0x24 PUSH1 0x0 REVERT JUMPDEST PUSH1 0x0 DUP1 REVERT JUMPDEST PUSH1 0x0 DUP1 REVERT JUMPDEST PUSH1 0x0 DUP1 REVERT JUMPDEST PUSH1 0x0 DUP1 REVERT JUMPDEST PUSH1 0x0 PUSH1 0x1F NOT PUSH1 0x1F DUP4 ADD AND SWAP1 POP SWAP2 SWAP1 POP JUMP INVALID LOG2 PUSH5 0x6970667358 0x22 SLT KECCAK256 0x2D 0xFC CREATE 0x4B AND RETURNDATASIZE DUP16 0xD2 0xB7 0xD7 PUSH12 0x89C52CDDBF74D4564C24C332 RETURN 0xBD PUSH22 0x7055764C615964736F6C634300080700330000000000 "
				},
				"gasEstimates": {
					"creation": {
						"codeDepositCost": "237600",
						"executionCost": "infinite",
						"totalCost": "infinite"
					},
					"external": {
						"message()": "infinite",
						"updateMessage(string)": "infinite"
					}
				},
				"methodIdentifiers": {
					"message()": "e21f37ce",
					"updateMessage(string)": "1923be24"
				}
			},
			"storageLayout": {
				"storage": [
					{
						"astId": 1736,
						"contract": "contracts/helloScroll.sol:HelloScroll",
						"label": "message",
						"offset": 0,
						"slot": "0",
						"type": "t_string_storage"
					}
				],
				"types": {
					"t_string_storage": {
						"encoding": "bytes",
						"label": "string",
						"numberOfBytes": "32"
					}
				}
			},
			"userdoc": {
				"kind": "user",
				"methods": {},
				"version": 1
			}
		}
	}
}